:100000000C942A000C9447000C9447000C94470071
:100010000C9447000C9447000C9447000C94AE09D4
:100020000C9447000C9447000C9447000C94470034
:100030000C9447000C9447000C9447000C94470024
:100040000C9447000C9447000C9447000C94470014
:100050000C94470011241FBECFE5D8E0DEBFCDBF12
:1000600011E0A0E6B0E0EEEFFFE302C005900D92D4
:10007000A631B107D9F711E0A6E1B1E001C01D92A8
:10008000A632B107E1F70E9498170C94FD1F0C945B
:100090000000EF92FF920F931F937B018C0120E0F1
:1000A00030E040E05FE40E94490388238CF0C801FF
:1000B000B70120E030E040E05FE40E94C1010E940F
:1000C000A9039B01AC01205030404040504806C07D
:1000D000C801B7010E94A9039B01AC01B901CA0183
:1000E0001F910F91FF90EF900895A0E0B0E0EBE733
:1000F000F0E00C948C1FDC012B01FA019C919230F2
:1001000008F439C1EB018881823008F433C194309E
:1001100069F4843009F02FC111969C91119789815F
:10012000981709F428C1A7E0B1E025C1843009F48B
:1001300021C18230A9F4923009F01DC19A01AD01AC
:1001400088E0EA010990AE01E90109929E0181501F
:10015000C1F7E201898111969C918923818308C1AD
:10016000923009F407C112962D903C901397EB0141
:100170008A819B811496AD90BD90CD90DC901797AD
:10018000EC80FD800E811F819101281B390BB90184
:1001900037FF04C066277727621B730B6032710537
:1001A0000CF061C0121613066CF537014801062EDB
:1001B00004C096948794779467940A94D2F721E0C8
:1001C00030E040E050E004C0220F331F441F551FB1
:1001D0006A95D2F721503040404050402E213F21B7
:1001E00040235123211531054105510521F021E01E
:1001F00030E040E050E079018A01E628F72808293C
:1002000019293CC0232BD1F1260E371E350146019A
:10021000062E04C096948794779467940A94D2F734
:1002200021E030E040E050E004C0220F331F441FC3
:10023000551F6A95D2F721503040404050402A2146
:100240003B214C215D21211531054105510521F04E
:1002500021E030E040E050E059016A01A628B728CB
:10026000C828D9280BC0821593052CF01C01AA249C
:10027000BB24650103C0EE24FF24870111969C91E5
:10028000D20111968C91981709F445C0992339F041
:10029000A80197012A193B094C095D0906C0A6016E
:1002A00095012E193F09400B510B57FD08C01182D3
:1002B0003382228224833583468357831DC081E0A5
:1002C00081833382228288279927DC01821B930B4A
:1002D000A40BB50B84839583A683B7830DC0220F2F
:1002E000331F441F551F24833583468357838281E0
:1002F000938101979383828324813581468157813D
:10030000DA01C9010197A109B1098F5F9F4FAF4F72
:10031000BF4328F30BC0918333822282EA0CFB1C7B
:100320000C1D1D1DE482F5820683178383E0808304
:10033000248135814681578157FF1AC0C901AA27F8
:1003400097FDA095BA2F81709070A070B0705695EF
:10035000479537952795822B932BA42BB52B848318
:100360009583A683B7838281938101969383828349
:10037000DF0101C0D201CD01CDB7DEB7E2E10C94BF
:10038000A81FA0E2B0E0E7ECF1E00C94981F6983AD
:100390007A838B839C832D833E834F835887E9E048
:1003A000EE2EF12CEC0EFD1ECE010196B7010E943F
:1003B000D2048E010F5E1F4FCE010596B8010E9438
:1003C000D2048A8991E089278A8BC701B801AE01DE
:1003D000475E5F4F0E9475000E94FD03A096E6E015
:1003E0000C94B41FA0E2B0E0E8EFF1E00C94981F89
:1003F00069837A838B839C832D833E834F835887C5
:10040000F9E0EF2EF12CEC0EFD1ECE010196B701A6
:100410000E94D2048E010F5E1F4FCE010596B801D7
:100420000E94D204C701B801AE01475E5F4F0E942F
:1004300075000E94FD03A096E6E00C94B41FA0E2B4
:10044000B0E0E5E2F2E00C948C1F69837A838B8341
:100450009C832D833E834F835887CE010196BE0136
:10046000675F7F4F0E94D204CE010596BE016F5E8A
:100470007F4F0E94D2049985923088F0898982301A
:10048000C8F0943019F4823051F404C0843029F457
:10049000923081F487E091E0C6C0923049F420E0C8
:1004A0009A858A89981321E02A87CE010996BBC0D4
:1004B000823049F420E09A858A89981321E02A8BBA
:1004C000CE014196B0C02D843E844F8458886D88FB
:1004D0007E888F88988CEE24FF248701AA24BB2471
:1004E000650140E050E060E070E0E0E0F0E0C10174
:1004F00081709070892BE9F0E60CF71C081D191D1E
:100500009A01AB012A0D3B1D4C1D5D1D80E090E062
:10051000A0E0B0E0E614F7040805190520F481E036
:1005200090E0A0E0B0E0BA01A901480F591F6A1F8E
:100530007B1FAA0CBB1CCC1CDD1C97FE08C081E0F5
:1005400090E0A0E0B0E0A82AB92ACA2ADB2A3196B6
:10055000E032F10549F0660C771C881C991C569412
:10056000479437942794C3CFFA85EA892B893C892D
:100570008B859C85280F391F2E5F3F4F17C0CA01FE
:1005800081709070892B61F016950795F794E79428
:1005900080E090E0A0E0B0E8E82AF92A0A2B1B2BC3
:1005A00076956795579547952F5F3F4F77FDE7CF36
:1005B0000CC0440F551F661F771F17FD4160EE0CDE
:1005C000FF1C001F111F21503040403090E05907A0
:1005D00090E0690790E4790760F32B8F3C8FDB0193
:1005E000CA018F779070A070B07080349105A1051A
:1005F000B10561F447FD0AC0E114F10401051105DC
:1006000029F0405C5F4F6F4F7F4F40781A8EFE1786
:1006100011F081E08A8F4D8F5E8F6F8F78A383E01A
:10062000898FCE0149960E94FD03A096E2E10C94C9
:10063000A81FA8E1B0E0EFE1F3E00C94981F6983F4
:100640007A838B839C832D833E834F83588789E0F5
:10065000E82EF12CEC0EFD1ECE010196B7010E9492
:10066000D2048E010F5E1F4FCE010596B8010E9485
:10067000D2048985823040F08989823028F0C70110
:10068000B8010E944A0501C08FEF6896E6E00C941D
:10069000B41FA8E1B0E0EFE4F3E00C94981F698385
:1006A0007A838B839C832D833E834F83588789E095
:1006B000E82EF12CEC0EFD1ECE010196B7010E9432
:1006C000D2048E010F5E1F4FCE010596B8010E9425
:1006D000D2048985823040F08989823028F0C701B0
:1006E000B8010E944A0501C08FEF6896E6E00C94BD
:1006F000B41FA8E1B0E0EFE7F3E00C94981F698322
:100700007A838B839C832D833E834F83588789E034
:10071000E82EF12CEC0EFD1ECE010196B7010E94D1
:10072000D2048E010F5E1F4FCE010596B8010E94C4
:10073000D2048985823040F08989823028F0C7014F
:10074000B8010E944A0501C081E06896E6E00C9479
:10075000B41FACE0B0E0EFEAF3E00C949C1F6983B7
:100760007A838B839C83CE010196BE016B5F7F4FA2
:100770000E94D2048D81823061F1823050F1843048
:1007800021F48E81882351F12EC02F81388537FDC9
:1007900020C06E812F3131051CF06623F9F023C093
:1007A0008EE190E0821B930B29853A854B855C8511
:1007B00004C056954795379527958A95D2F76623B5
:1007C000B1F050954095309521953F4F4F4F5F4F79
:1007D0000EC020E030E040E050E009C02FEF3FEFD6
:1007E0004FEF5FE704C020E030E040E050E8B9019F
:1007F000CA012C96E2E00C94B81FDF92EF92FF92B0
:100800000F931F93FC01E480F58006811781D1804E
:100810008081823048F480E090E0A0E1B0E0E82AF6
:10082000F92A0A2B1B2BA5C0843009F49FC0823003
:1008300021F4EE24FF24870105C0E114F104010531
:10084000110519F4E0E0F0E096C0628173819FEF3A
:10085000623879070CF05BC022E83FEF261B370BAC
:100860002A3131052CF020E030E040E050E02AC091
:10087000B801A701022E04C0769567955795479554
:100880000A94D2F781E090E0A0E0B0E004C0880FC5
:10089000991FAA1FBB1F2A95D2F70197A109B10979
:1008A0008E219F21A023B1230097A105B10521F03E
:1008B00081E090E0A0E0B0E09A01AB01282B392B59
:1008C0004A2B5B2BDA01C9018F779070A070B07052
:1008D00080349105A105B10539F427FF09C0205CDA
:1008E0003F4F4F4F5F4F04C0215C3F4F4F4F5F4F13
:1008F000E0E0F0E02030A0E03A07A0E04A07A0E402
:100900005A0710F0E1E0F0E079018A0127C0603871
:10091000710564F5FB01E158FF4FD801C7018F77DE
:100920009070A070B07080349105A105B10539F4C4
:10093000E7FE0DC080E490E0A0E0B0E004C08FE3EB
:1009400090E0A0E0B0E0E80EF91E0A1F1B1F17FFA1
:1009500005C016950795F794E794319687E01695AC
:100960000795F794E7948A95D1F705C0EE24FF2404
:100970008701EFEFF0E06E2F679566276795902F60
:100980009F77D794DD24D7948E2F8695492F462BB9
:10099000582F5D29B701CA011F910F91FF90EF9069
:1009A000DF900895FC01DB01408151812281622F9B
:1009B0006F7770E0221F2227221F9381892F880FD3
:1009C000822B282F30E0991F9927991F11969C930D
:1009D000119721153105A9F54115510561057105DD
:1009E00011F482E037C082E89FEF13969C938E93B8
:1009F00012979A01AB0167E0220F331F441F551F66
:100A00006A95D1F783E08C930DC0220F331F441FEA
:100A1000551F12968D919C911397019713969C9355
:100A20008E931297203080E0380780E0480780E4FA
:100A3000580758F314962D933D934D935C93179755
:100A400008952F3F310579F4411551056105710570
:100A500019F484E08C93089564FF03C081E08C93C3
:100A600012C01C9210C02F57304013963C932E9307
:100A7000129783E08C9387E0440F551F661F771F02
:100A80008A95D1F7706414964D935D936D937C9322
:100A9000179708951F93DC01FB019C91923008F495
:100AA00047C08081823008F443C0943051F41196DD
:100AB0001C91843099F58181682F70E0611B710968
:100AC0003FC0843021F0923031F48230B9F181811D
:100AD000882389F12DC011961C9111978230F1F075
:100AE00081811817D9F412962D913C911397828128
:100AF00093818217930794F028173907BCF0149656
:100B00008D919D910D90BC91A02D248135814681C0
:100B10005781281739074A075B0718F4112341F05A
:100B20000AC082179307A407B50740F4112319F0F0
:100B300061E070E005C06FEF7FEF02C060E070E041
:100B4000CB011F910895DF93CF9300D000D00F9277
:100B5000CDB7DEB789836A834B838A81883008F0FA
:100B6000D5C08981843008F0D1C08981282F30E038
:100B70003D832C838C819D818130910509F443C094
:100B80002C813D81223031052CF48C819D81009790
:100B900071F0BCC02C813D812230310509F45FC069
:100BA0008C819D818330910509F485C0AFC08B8114
:100BB0008130A1F4AAE3B0E0EAE3F0E08081482FBD
:100BC0008A81282F30E081E090E0022E02C0880F59
:100BD000991F0A94E2F7842B8C9398C0AAE3B0E0A3
:100BE000EAE3F0E08081482F8A81282F30E081E01D
:100BF00090E0022E02C0880F991F0A94E2F78095B8
:100C000084238C9383C08B818130A1F4A7E3B0E06F
:100C1000E7E3F0E08081482F8A81282F30E081E0EF
:100C200090E0022E02C0880F991F0A94E2F7842BED
:100C30008C936CC0A7E3B0E0E7E3F0E08081482F3D
:100C40008A81282F30E081E090E0022E02C0880FD8
:100C5000991F0A94E2F7809584238C9357C08B8167
:100C60008130A1F4A4E3B0E0E4E3F0E08081482F18
:100C70008A81282F30E081E090E0022E02C0880FA8
:100C8000991F0A94E2F7842B8C9340C0A4E3B0E050
:100C9000E4E3F0E08081482F8A81282F30E081E072
:100CA00090E0022E02C0880F991F0A94E2F7809507
:100CB00084238C932BC08B818130A1F4A1E3B0E01D
:100CC000E1E3F0E08081482F8A81282F30E081E045
:100CD00090E0022E02C0880F991F0A94E2F7842B3D
:100CE0008C9314C0A1E3B0E0E1E3F0E08081482FF1
:100CF0008A81282F30E081E090E0022E02C0880F28
:100D0000991F0A94E2F7809584238C930F900F909B
:100D10000F900F900F90CF91DF910895DF93CF93B5
:100D2000CDB7DEB72D970FB6F894DEBF0FBECDBF9F
:100D300089836A834B838A81883008F0DBC089818C
:100D4000843008F0D7C08981282F30E03D872C8778
:100D50008C859D858130910509F444C02C853D85A5
:100D6000223031052CF48C859D85009771F0C2C02E
:100D70002C853D852230310509F462C08C859D8526
:100D80008330910509F489C0B5C08B818823A9F00F
:100D9000ABE3B0E0EBE3F0E08081482F8A81282FBD
:100DA00030E081E090E0022E02C0880F991F0A9483
:100DB000E2F7842B8C939C919DC0ABE3B0E0EBE316
:100DC000F0E08081482F8A81282F30E081E090E098
:100DD00002C0880F991F2A95E2F7809584238C938F
:100DE0002C9188C08B818823A9F0A8E3B0E0E8E3C8
:100DF000F0E08081482F8A81282F30E081E090E068
:100E0000022E02C0880F991F0A94E2F7842B8C935C
:100E10003C9170C0A8E3B0E0E8E3F0E08081482FA7
:100E20008A81282F30E081E090E0022E02C0880FF6
:100E3000991F0A94E2F7809584238C938C915AC071
:100E40008B818823A9F0A5E3B0E0E5E3F0E08081A1
:100E5000482F8A81282F30E081E090E0022E02C0E6
:100E6000880F991F0A94E2F7842B8C939C9142C0BF
:100E7000A5E3B0E0E5E3F0E08081482F8A81282FE8
:100E800030E081E090E002C0880F991F2A95E2F7D8
:100E9000809584238C932C912DC08B818823A9F07D
:100EA000A2E3B0E0E2E3F0E08081482F8A81282FBE
:100EB00030E081E090E0022E02C0880F991F0A9472
:100EC000E2F7842B8C933C9115C0A2E3B0E0E2E3FF
:100ED000F0E08081482F8A81282F30E081E090E087
:100EE000022E02C0880F991F0A94E2F7809584238E
:100EF0008C938C912D960FB6F894DEBF0FBECDBFAC
:100F0000CF91DF910895DF93CF9300D000D000D030
:100F1000CDB7DEB789836A838A81883018F48981E6
:100F2000843010F01D8282C08981282F30E03C83FC
:100F30002B834B815C814130510579F18B819C8100
:100F40008230910534F42B813C812115310569F003
:100F50006CC04B815C8142305105B9F18B819C8121
:100F60008330910509F449C060C0E9E3F0E0808175
:100F7000282F30E08A81882F90E0A90102C0559582
:100F800047958A95E2F7CA0181709070882319F01D
:100F900051E05D834BC01D8249C0E6E3F0E08081F3
:100FA000282F30E08A81882F90E0A90102C0559552
:100FB00047958A95E2F7CA0181709070882319F0ED
:100FC00051E05D8333C01D8231C0E3E3F0E08081F6
:100FD000282F30E08A81882F90E0A90102C0559522
:100FE00047958A95E2F7CA0181709070882319F0BD
:100FF00051E05D831BC01D8219C0E0E3F0E08081F9
:10100000282F30E08A81882F90E0A90102C05595F1
:1010100047958A95E2F7CA0181709070882319F08C
:1010200051E05D8303C01D8201C002C08D818E83AB
:101030008E8126960FB6F894DEBF0FBECDBFCF913E
:10104000DF910895DF93CF9300D000D0CDB7DEB706
:1010500089836A838981843090F58981282F30E0E3
:101060003C832B838B819C8181309105D1F02B8136
:101070003C81223031052CF48B819C81009761F0FA
:101080001EC02B813C812230310581F08B819C81F7
:101090008330910581F013C0EAE3F0E08A81808318
:1010A0000EC0E7E3F0E08A81808309C0E4E3F0E06A
:1010B0008A81808304C0E1E3F0E08A8180830F901D
:1010C0000F900F900F90CF91DF910895DF93CF9302
:1010D00000D000D0CDB7DEB789836A838981282FFD
:1010E00030E03C832B838B819C8181309105D1F052
:1010F0002B813C81223031052CF48B819C8100971F
:1011000061F01EC02B813C812230310581F08B8142
:101110009C818330910581F013C0EBE3F0E08A817C
:1011200080830EC0E8E3F0E08A81808309C0E5E3B4
:10113000F0E08A81808304C0E2E3F0E08A8180836A
:101140000F900F900F900F90CF91DF910895DF9344
:10115000CF9300D000D00F92CDB7DEB789838981BD
:10116000843010F01C8234C08981282F30E03B830A
:101170002A838A819B8181309105D1F02A813B812C
:10118000223031052CF48A819B81009761F01FC0C9
:101190002A813B812230310581F08A819B81833015
:1011A000910581F014C0E9E3F0E090819C8310C0C8
:1011B000E6E3F0E020812C830BC0E3E3F0E0308134
:1011C0003C8306C0E0E3F0E080818C8301C002C074
:1011D0009C819D838D810F900F900F900F900F90A9
:1011E000CF91DF910895DF93CF9300D000D0CDB79A
:1011F000DEB79A838983EFE4F0E08CE08083ACE48F
:10120000B0E0E981FA818081918111969C938E935F
:10121000E981FA818481282F30E03C832B838B8104
:101220009C818230910541F12B813C812330310535
:1012300054F48B819C810097B1F02B813C8121304B
:101240003105A9F02CC08B819C8184309105F1F08F
:101250002B813C8124303105A4F08B819C81853029
:101260009105C9F01CC0EEE4F0E0108218C0EEE475
:10127000F0E081E0808313C0EEE4F0E082E0808360
:101280000EC0EEE4F0E083E0808309C0EEE4F0E01D
:1012900084E0808304C0EEE4F0E085E08083E981AF
:1012A000FA8185818130C1F4AEE4B0E0EEE4F0E093
:1012B000808188608C93AAE4B0E0E981FA81828120
:1012C000938111969C938E93A9E5B0E0E9E5F0E057
:1012D000808180618C930CC0E981FA8185818823AB
:1012E00039F4A9E5B0E0E9E5F0E0808184608C9311
:1012F0000F900F900F900F90CF91DF910895DF9393
:10130000CF93CDB7DEB7EEE4F0E01082EAE4F0E090
:1013100011821082ECE4F0E011821082A9E5B0E0C5
:10132000E9E5F0E080818B7E8C931092170110929A
:101330001601CF91DF910895DF93CF9300D0CDB701
:10134000DEB79A83898389819A819093170180936C
:1013500016010F900F90CF91DF9108951F920F9279
:101360000FB60F9211242F933F934F935F936F9378
:101370007F938F939F93AF93BF93EF93FF93DF93ED
:10138000CF93CDB7DEB780911601909117010097EA
:1013900029F0E0911601F09117010995CF91DF91A5
:1013A000FF91EF91BF91AF919F918F917F916F913D
:1013B0005F914F913F912F910F900FBE0F901F9013
:1013C00018951F920F920FB60F9211242F933F93EF
:1013D0004F935F936F937F938F939F93AF93BF933D
:1013E000EF93FF93DF93CF93CDB7DEB780911601D4
:1013F00090911701009729F0E0911601F0911701E3
:101400000995CF91DF91FF91EF91BF91AF919F919E
:101410008F917F916F915F914F913F912F910F909D
:101420000FBE0F901F901895DF93CF93CDB7DEB707
:101430002A970FB6F894DEBF0FBECDBF9C838B8377
:101440001A821982EBE2F0E082E08083EAE2F0E0C7
:1014500088E18083E0E4F0E0808180688083EB8134
:10146000FC818081282F30E03A87298789859A85F9
:1014700082309105A9F129853A852330310554F44C
:1014800089859A85009789F029853A85213031052B
:10149000C9F04DC089859A858330910579F12985F8
:1014A0003A8524303105B9F142C0E0E4F0E08081B2
:1014B000897F8083AAE2B0E0EAE2F0E080818B7F5E
:1014C0008C9335C0E0E4F0E08081897F8260808386
:1014D000AAE2B0E0EAE2F0E080818B7F8C9327C043
:1014E000E0E4F0E08081897F84608083AAE2B0E05C
:1014F000EAE2F0E080818B7F8C9319C0E0E4F0E0B9
:10150000808186608083AAE2B0E0EAE2F0E0808138
:101510008B7F8C930CC0E0E4F0E080818660808358
:10152000AAE2B0E0EAE2F0E0808184608C93EB8193
:10153000FC818181282F30E038872F838F81988527
:101540008130910579F02F8138852230310589F07D
:101550008F819885009791F4E0E4F0E080818F7CA2
:1015600080830CC0E0E4F0E080818F7C8062808327
:1015700005C0E0E4F0E0808180638083EB81FC8142
:101580008281282F30E03E832D838D819E810097BC
:1015900031F02D813E812130310539F00BC0E0E47E
:1015A000F0E08081877F808305C0E0E4F0E0808107
:1015B00088608083E0E4F0E080818E7F8083E0E4D7
:1015C000F0E080818F7B8083EB81FC81838194813B
:1015D000A581B681880F991FAA1FBB1F880F991F6D
:1015E000AA1FBB1F880F991FAA1FBB1F9C01AD011B
:1015F00080E092E1AAE7B0E0BC01CD010E946A1F41
:10160000DA01C90101979A838983E0E4F0E08981D6
:101610009A81892F99278083E9E2F0E0898180838C
:101620002A960FB6F894DEBF0FBECDBFCF91DF91E3
:101630000895DF93CF930F92CDB7DEB78983EBE2A6
:10164000F0E08081882F90E0807290700097B9F36D
:10165000ECE2F0E0898180830F90CF91DF910895D3
:10166000DF93CF93CDB7DEB7EBE2F0E08081882344
:10167000DCF7ECE2F0E08081CF91DF910895DF9319
:10168000CF9300D00F92CDB7DEB79B838A831982A8
:101690000EC08981282F30E08A819B81FC01E20FF6
:1016A000F31F80810E94190B89818F5F8983898153
:1016B000282F30E08A819B81FC01E20FF31F80819B
:1016C000882339F70F900F900F90CF91DF910895F5
:1016D0000F931F93DF93CF9300D00F92CDB7DEB758
:1016E0009B838A8319828981282F30E08A819B819C
:1016F0008C01020F131F0E94300BF80180830FC072
:1017000089818F5F89838981282F30E08A819B813D
:101710008C01020F131F0E94300BF8018083898116
:10172000282F30E08A819B81FC01E20FF31F80812A
:10173000833231F78981282F30E08A819B81FC0137
:10174000E20FF31F10820F900F900F90CF91DF9157
:101750001F910F910895DF93CF93CDB7DEB76097B8
:101760000FB6F894DEBF0FBECDBF81E064E040E06D
:101770000E94A30581E065E040E00E94A30581E0AE
:1017800066E040E00E94A30581E067E040E00E943F
:10179000A30583E062E040E00E94A30583E063E0EC
:1017A00040E00E94A30583E064E040E00E94A305BE
:1017B00083E065E040E00E94A3051F86B4C08F85EA
:1017C000982F9C5F81E0692F41E00E94A3058F85DF
:1017D000982F9C5F81E0692F40E00E948E06188A56
:1017E00022C08889982F9E5F83E0692F0E9483071B
:1017F0008823B1F48F85882F90E0880F991F880F78
:10180000991F982F8889890F8F5F0E94980C609686
:101810000FB6F894DEBF0FBECDBFCF91DF91089514
:1018200088898F5F888B88898430D8F28F85982F3C
:101830009C5F81E0692F40E00E94A30580E090E07A
:10184000A0EAB0E48B879C87AD87BE876B857C85DB
:101850008D859E8520E030E04AEF54E40E941F020F
:10186000DC01CB018F839887A987BA876F81788540
:1018700089859A8520E030E040E85FE30E947903A3
:1018800088232CF481E090E09E838D833FC06F819C
:10189000788589859A8520E03FEF4FE757E40E94DD
:1018A000190318164CF56B857C858D859E8520E087
:1018B00030E040E251E40E941F02DC01CB01BC0198
:1018C000CD010E944900DC01CB019E838D830FC0B6
:1018D00088EC90E09C838B838B819C810197F1F74E
:1018E0009C838B838D819E8101979E838D838D81C7
:1018F0009E81009769F714C06F81788589859A85E4
:101900000E944900DC01CB019E838D838D819E81E5
:101910009A83898389819A810197F1F79A838983D0
:101920008F858F5F8F878F85843008F448CF45CFB0
:10193000DF93CF9300D000D0CDB7DEB78A83198272
:101940008A81282F30E03C832B838B819C818830D7
:10195000910509F470C02B813C81293031055CF57B
:101960008B819C818430910509F459C02B813C8185
:10197000253031059CF48B819C818230910509F4DE
:1019800048C02B813C81233031050CF045C08B8150
:101990009C818130910509F439C067C02B813C815D
:1019A0002630310509F441C08B819C818730910537
:1019B0000CF03EC037C02B813C812C30310509F43E
:1019C00046C08B819C818D3091055CF42B813C81DC
:1019D0002A303105B1F18B819C818B309105A4F5C2
:1019E0002DC02B813C812E303105B9F18B819C813A
:1019F0008E3091057CF12B813C812F30310579F1BE
:101A00008B819C818031910569F12FC087E08983AA
:101A10002EC088E089832BC089E0898328C085E2B5
:101A2000898325C084E0898322C085E089831FC023
:101A300086E089831CC08AE2898319C081E089839A
:101A400016C082E0898313C083E0898310C08DE2D1
:101A500089830DC08DE089830AC0198208C08DE397
:101A6000898305C08BE2898302C08A818983898149
:101A70000F900F900F900F90CF91DF910895DF930B
:101A8000CF93CDB7DEB72E970FB6F894DEBF0FBE5B
:101A9000CDBF80E061E041E00E94A30580E062E00C
:101AA00041E00E94A30580E090E0A0EAB1E48B87CA
:101AB0009C87AD87BE876B857C858D859E8520E064
:101AC00030E04AEF54E40E941F02DC01CB018F8317
:101AD0009887A987BA876F81788589859A8520E05C
:101AE00030E040E85FE30E94790388232CF481E032
:101AF00090E09E838D833FC06F81788589859A852C
:101B000020E03FEF4FE757E40E94190318164CF509
:101B10006B857C858D859E8520E030E040E251E438
:101B20000E941F02DC01CB01BC01CD010E944900D3
:101B3000DC01CB019E838D830FC088EC90E09C83F9
:101B40008B838B819C810197F1F79C838B838D81A3
:101B50009E8101979E838D838D819E81009769F779
:101B600014C06F81788589859A850E944900DC01BF
:101B7000CB019E838D838D819E819A838983898108
:101B80009A810197F1F79A83898380E063E041E0CD
:101B90000E94A30580E064E041E00E94A30580E08C
:101BA00065E041E00E94A30580E066E041E00E941C
:101BB000A30583E30E94F10D82E30E94F10D88E208
:101BC0000E94F10D8CE00E94F10D81E00E94F10D68
:101BD0002E960FB6F894DEBF0FBECDBFCF91DF912A
:101BE00008950F931F93DF93CF93CDB7DEB7C356FE
:101BF000D0400FB6F894DEBF0FBECDBFFE01ED5949
:101C0000FF4F808380E061E040E00E948E06FE018D
:101C1000E15AFF4F80E090E0A0E8BFE3808391832A
:101C2000A283B3838E01055A1F4FFE01E15AFF4F75
:101C3000608171818281938120E030E04AEF54E439
:101C40000E941F02DC01CB01F80180839183A283F3
:101C5000B383FE01E55AFF4F6081718182819381D8
:101C600020E030E040E85FE30E947903882344F4F9
:101C7000FE01E75AFF4F81E090E09183808364C0CA
:101C8000FE01E55AFF4F608171818281938120E0DE
:101C90003FEF4FE757E40E94190318160CF043C0BA
:101CA000FE01E15AFF4F608171818281938120E0C2
:101CB00030E040E251E40E941F02DC01CB018E01C2
:101CC000075A1F4FBC01CD010E944900DC01CB0126
:101CD000F801918380831FC0FE01E95AFF4F88EC11
:101CE00090E091838083FE01E95AFF4F80819181CA
:101CF0000197F1F7FE01E95AFF4F91838083DE01DE
:101D0000A75ABF4FFE01E75AFF4F8081918101978B
:101D100011969C938E93FE01E75AFF4F808191812B
:101D20000097D1F627C08E01075A1F4FFE01E55AD2
:101D3000FF4F60817181828193810E944900DC01A3
:101D4000CB01F80191838083DE01AB5ABF4FFE01C6
:101D5000E75AFF4F808191818D939C93FE01EB5A4E
:101D6000FF4F808191810197F1F7FE01EB5AFF4F00
:101D70009183808380E062E041E00E948E06FE0154
:101D8000EF5AFF4F80E090E0A0E8BFE380839183AB
:101D9000A283B3838E01035B1F4FFE01EF5AFF4FF7
:101DA000608171818281938120E030E04AEF54E4C8
:101DB0000E941F02DC01CB01F80180839183A28382
:101DC000B383FE01E35BFF4F608171818281938168
:101DD00020E030E040E85FE30E947903882344F488
:101DE000FE01E55BFF4F81E090E09183808364C05A
:101DF000FE01E35BFF4F608171818281938120E06E
:101E00003FEF4FE757E40E94190318160CF043C048
:101E1000FE01EF5AFF4F608171818281938120E042
:101E200030E040E251E40E941F02DC01CB018E0150
:101E3000055B1F4FBC01CD010E944900DC01CB01B5
:101E4000F801918380831FC0FE01E75BFF4F88ECA0
:101E500090E091838083FE01E75BFF4F8081918159
:101E60000197F1F7FE01E75BFF4F91838083DE016D
:101E7000A55BBF4FFE01E55BFF4F8081918101971C
:101E800011969C938E93FE01E55BFF4F80819181BB
:101E90000097D1F627C08E01055B1F4FFE01E35B63
:101EA000FF4F60817181828193810E944900DC0132
:101EB000CB01F80191838083DE01A95BBF4FFE0156
:101EC000E55BFF4F808191818D939C93FE01E95BDF
:101ED000FF4F808191810197F1F7FE01E95BFF4F90
:101EE00091838083FE01ED59FF4F8081882F90E020
:101EF000807190709595879595958795959587951F
:101F000095958795982F80E063E0492F0E948E0673
:101F1000FE01ED59FF4F8081882F90E08072907014
:101F20009595879595958795959587959595879599
:101F300095958795982F80E064E0492F0E948E0642
:101F4000FE01ED59FF4F8081882F90E080749070E2
:101F5000082E892F000C881F990B000C881F991FD1
:101F6000982F80E065E0492F0E948E06FE01ED5912
:101F7000FF4F8081982F991F9927991F80E066E075
:101F8000492F0E948E06FE01ED5BFF4F80E090E03E
:101F9000A0E8BFE380839183A283B3838E01015CB9
:101FA0001F4FFE01ED5BFF4F608171818281938144
:101FB00020E030E04AEF54E40E941F02DC01CB0134
:101FC000F80180839183A283B383FE01FF96608131
:101FD00071818281938120E030E040E85FE30E94DC
:101FE000790388232CF481E090E09EAF8DAF46C04A
:101FF000FE01FF96608171818281938120E03FEF35
:102000004FE757E40E941903181664F5FE01ED5BD3
:10201000FF4F608171818281938120E030E040E256
:1020200051E40E941F02DC01CB01BC01CD010E94E2
:102030004900DC01CB019EAF8DAF0FC088EC90E072
:102040009CAF8BAF8BAD9CAD0197F1F79CAF8BAF85
:102050008DAD9EAD01979EAF8DAF8DAD9EAD0097BE
:1020600069F716C0FE01FF966081718182819381BC
:102070000E944900DC01CB019EAF8DAF8DAD9EADBE
:102080009AAF89AF89AD9AAD0197F1F79AAF89AF51
:1020900080E062E040E00E948E0680E090E0A0E8F0
:1020A000BFE38DAB9EABAFABB8AF6DA97EA98FA9D7
:1020B00098AD20E030E04AEF54E40E941F02DC01BA
:1020C000CB0189AB9AABABABBCAB69A97AA98BA9A5
:1020D0009CA920E030E040E85FE30E947903882378
:1020E0002CF481E090E098AB8FA73FC069A97AA952
:1020F0008BA99CA920E03FEF4FE757E40E9419030A
:1021000018164CF56DA97EA98FA998AD20E030E096
:1021100040E251E40E941F02DC01CB01BC01CD0171
:102120000E944900DC01CB0198AB8FA70FC088EC5F
:1021300090E09EA78DA78DA59EA50197F1F79EA77C
:102140008DA78FA598A9019798AB8FA78FA598A960
:10215000009769F714C069A97AA98BA99CA90E9464
:102160004900DC01CB0198AB8FA78FA598A99CA74C
:102170008BA78BA59CA50197F1F79CA78BA780E067
:1021800062E041E00E948E0680E090E0A0E8BFE3BC
:102190008FA398A7A9A7BAA76FA178A589A59AA583
:1021A00020E030E04AEF54E40E941F02DC01CB0142
:1021B0008BA39CA3ADA3BEA36BA17CA18DA19EA16B
:1021C00020E030E040E85FE30E94790388232CF4AC
:1021D00081E090E09AA389A33FC06BA17CA18DA16F
:1021E0009EA120E03FEF4FE757E40E941903181625
:1021F0004CF56FA178A589A59AA520E030E040E2D2
:1022000051E40E941F02DC01CB01BC01CD010E9400
:102210004900DC01CB019AA389A30FC088EC90E0B0
:1022200098A38F8F8F8D98A10197F1F798A38F8F27
:1022300089A19AA101979AA389A389A19AA100973C
:1022400069F714C06BA17CA18DA19EA10E944900D9
:10225000DC01CB019AA389A389A19AA19E8F8D8FBE
:102260008D8D9E8D0197F1F79E8F8D8FFE01ED591B
:10227000FF4F8081982F917080E063E0492F0E948A
:102280008E06FE01ED59FF4F8081882F90E082700D
:10229000907095958795982F80E064E0492F0E9473
:1022A0008E06FE01ED59FF4F8081882F90E08470EB
:1022B00090709595879595958795982F80E065E026
:1022C000492F0E948E06FE01ED59FF4F8081882F15
:1022D00090E08870907095958795959587959595E0
:1022E0008795982F80E066E0492F0E948E0680E057
:1022F00090E0A0E8BFE3898F9A8FAB8FBC8F698D88
:102300007A8D8B8D9C8D20E030E04AEF54E40E9462
:102310001F02DC01CB018D8B9E8BAF8BB88F6D893B
:102320007E898F89988D20E030E040E85FE30E944D
:10233000790388232CF481E090E09C8B8B8B3FC049
:102340006D897E898F89988D20E03FEF4FE757E4B4
:102350000E94190318164CF5698D7A8D8B8D9C8D12
:1023600020E030E040E251E40E941F02DC01CB019A
:10237000BC01CD010E944900DC01CB019C8B8B8B01
:102380000FC088EC90E09A8B898B89899A89019794
:10239000F1F79A8B898B8B899C8901979C8B8B8B0E
:1023A0008B899C89009769F714C06D897E898F8914
:1023B000988D0E944900DC01CB019C8B8B8B8B8913
:1023C0009C89988B8F878F8598890197F1F7988BD7
:1023D0008F8780E062E040E00E948E0680E090E01F
:1023E000A0E8BFE38B879C87AD87BE876B857C8524
:1023F0008D859E8520E030E04AEF54E40E941F0264
:10240000DC01CB018F839887A987BA876F81788594
:1024100089859A8520E030E040E85FE30E947903F7
:1024200088232CF481E090E09E838D833FC06F81F0
:10243000788589859A8520E03FEF4FE757E40E9431
:10244000190318164CF56B857C858D859E8520E0DB
:1024500030E040E251E40E941F02DC01CB01BC01EC
:10246000CD010E944900DC01CB019E838D830FC00A
:1024700088EC90E09C838B838B819C810197F1F7A2
:102480009C838B838D819E8101979E838D838D811B
:102490009E81009769F714C06F81788589859A8538
:1024A0000E944900DC01CB019E838D838D819E813A
:1024B0009A83898389819A810197F1F79A83898325
:1024C000CD59DF4F0FB6F894DEBF0FBECDBFCF9111
:1024D000DF911F910F9108950F931F93DF93CF9377
:1024E000CDB7DEB7C356D0400FB6F894DEBF0FBEEF
:1024F000CDBFFE01ED59FF4F808380E061E041E0F8
:102500000E948E06FE01E15AFF4F80E090E0A0E8B5
:10251000BFE380839183A283B3838E01055A1F4F4B
:10252000FE01E15AFF4F608171818281938120E039
:1025300030E04AEF54E40E941F02DC01CB01F801B5
:1025400080839183A283B383FE01E55AFF4F6081AC
:1025500071818281938120E030E040E85FE30E9456
:102560007903882344F4FE01E75AFF4F81E090E0AD
:102570009183808364C0FE01E55AFF4F60817181C1
:102580008281938120E03FEF4FE757E40E941903D7
:1025900018160CF043C0FE01E15AFF4F60817181B3
:1025A0008281938120E030E040E251E40E941F02EA
:1025B000DC01CB018E01075A1F4FBC01CD010E94E7
:1025C0004900DC01CB01F801918380831FC0FE012B
:1025D000E95AFF4F88EC90E091838083FE01E95A2D
:1025E000FF4F808191810197F1F7FE01E95AFF4F7A
:1025F00091838083DE01A75ABF4FFE01E75AFF4F48
:1026000080819181019711969C938E93FE01E75AE8
:10261000FF4F808191810097D1F627C08E01075A24
:102620001F4FFE01E55AFF4F6081718182819381C6
:102630000E944900DC01CB01F80191838083DE0117
:10264000AB5ABF4FFE01E75AFF4F808191818D93B6
:102650009C93FE01EB5AFF4F808191810197F1F726
:10266000FE01EB5AFF4F9183808380E062E041E0FE
:102670000E948E06FE01EF5AFF4F80E090E0A0E836
:10268000BFE380839183A283B3838E01035B1F4FDB
:10269000FE01EF5AFF4F608171818281938120E0BA
:1026A00030E04AEF54E40E941F02DC01CB01F80144
:1026B00080839183A283B383FE01E35BFF4F60813C
:1026C00071818281938120E030E040E85FE30E94E5
:1026D0007903882344F4FE01E55BFF4F81E090E03D
:1026E0009183808364C0FE01E35BFF4F6081718151
:1026F0008281938120E03FEF4FE757E40E94190366
:1027000018160CF043C0FE01EF5AFF4F6081718133
:102710008281938120E030E040E251E40E941F0278
:10272000DC01CB018E01055B1F4FBC01CD010E9476
:102730004900DC01CB01F801918380831FC0FE01B9
:10274000E75BFF4F88EC90E091838083FE01E75BBD
:10275000FF4F808191810197F1F7FE01E75BFF4F09
:1027600091838083DE01A55BBF4FFE01E55BFF4FD8
:1027700080819181019711969C938E93FE01E55B78
:10278000FF4F808191810097D1F627C08E01055BB4
:102790001F4FFE01E35BFF4F608171818281938156
:1027A0000E944900DC01CB01F80191838083DE01A6
:1027B000A95BBF4FFE01E55BFF4F808191818D9347
:1027C0009C93FE01E95BFF4F808191810197F1F7B6
:1027D000FE01E95BFF4F91838083FE01ED59FF4FBE
:1027E0008081882F90E08071907095958795959560
:1027F00087959595879595958795982F80E063E0C7
:10280000492F0E948E06FE01ED59FF4F8081882FCF
:1028100090E08072907095958795959587959595A0
:1028200087959595879595958795982F80E064E095
:10283000492F0E948E06FE01ED59FF4F8081882F9F
:1028400090E080749070082E892F000C881F990BDF
:10285000000C881F991F982F80E065E0492F0E9487
:102860008E06FE01ED59FF4F8081982F991F992701
:10287000991F80E066E0492F0E948E06FE01ED5B05
:10288000FF4F80E090E0A0E8BFE380839183A283C4
:10289000B3838E01015C1F4FFE01ED5BFF4F608132
:1028A00071818281938120E030E04AEF54E40E94FC
:1028B0001F02DC01CB01F80180839183A283B383E3
:1028C000FE01FF96608171818281938120E030E07A
:1028D00040E85FE30E94790388232CF481E090E0D4
:1028E0009EAF8DAF46C0FE01FF96608171818281EF
:1028F000938120E03FEF4FE757E40E941903181639
:1029000064F5FE01ED5BFF4F6081718182819381EF
:1029100020E030E040E251E40E941F02DC01CB01E4
:10292000BC01CD010E944900DC01CB019EAF8DAFFF
:102930000FC088EC90E09CAF8BAF8BAD9CAD019746
:10294000F1F79CAF8BAF8DAD9EAD01979EAF8DAF74
:102950008DAD9EAD009769F716C0FE01FF966081B0
:102960007181828193810E944900DC01CB019EAF7D
:102970008DAF8DAD9EAD9AAF89AF89AD9AAD019700
:10298000F1F79AAF89AF80E062E040E00E948E06E6
:1029900080E090E0A0E8BFE38DAB9EABAFABB8AFFB
:1029A0006DA97EA98FA998AD20E030E04AEF54E4EC
:1029B0000E941F02DC01CB0189AB9AABABABBCAB75
:1029C00069A97AA98BA99CA920E030E040E85FE3DF
:1029D0000E94790388232CF481E090E098AB8FA7C4
:1029E0003FC069A97AA98BA99CA920E03FEF4FE7D6
:1029F00057E40E94190318164CF56DA97EA98FA9FA
:102A000098AD20E030E040E251E40E941F02DC017A
:102A1000CB01BC01CD010E944900DC01CB0198AB88
:102A20008FA70FC088EC90E09EA78DA78DA59EA5CF
:102A30000197F1F79EA78DA78FA598A9019798AB4D
:102A40008FA78FA598A9009769F714C069A97AA9DB
:102A50008BA99CA90E944900DC01CB0198AB8FA7F0
:102A60008FA598A99CA78BA78BA59CA50197F1F78B
:102A70009CA78BA780E062E041E00E948E0680E088
:102A800090E0A0E8BFE38FA398A7A9A7BAA76FA17A
:102A900078A589A59AA520E030E04AEF54E40E9489
:102AA0001F02DC01CB018BA39CA3ADA3BEA36BA132
:102AB0007CA18DA19EA120E030E040E85FE30E9470
:102AC000790388232CF481E090E09AA389A33FC086
:102AD0006BA17CA18DA19EA120E03FEF4FE757E4C1
:102AE0000E94190318164CF56FA178A589A59AA51F
:102AF00020E030E040E251E40E941F02DC01CB0103
:102B0000BC01CD010E944900DC01CB019AA389A33D
:102B10000FC088EC90E098A38F8F8F8D98A10197BC
:102B2000F1F798A38F8F89A19AA101979AA389A3FE
:102B300089A19AA1009769F714C06BA17CA18DA10E
:102B40009EA10E944900DC01CB019AA389A389A11F
:102B50009AA19E8F8D8F8D8D9E8D0197F1F79E8FFF
:102B60008D8FFE01ED59FF4F8081982F917080E08D
:102B700063E0492F0E948E06FE01ED59FF4F8081D0
:102B8000882F90E08270907095958795982F80E0BF
:102B900064E0492F0E948E06FE01ED59FF4F8081AF
:102BA000882F90E08470907095958795959587957E
:102BB000982F80E065E0492F0E948E06FE01ED59B6
:102BC000FF4F8081882F90E0887090709595879551
:102BD0009595879595958795982F80E066E0492F84
:102BE0000E948E0680E090E0A0E8BFE3898F9A8F74
:102BF000AB8FBC8F698D7A8D8B8D9C8D20E030E002
:102C00004AEF54E40E941F02DC01CB018D8B9E8BA6
:102C1000AF8BB88F6D897E898F89988D20E030E0E9
:102C200040E85FE30E94790388232CF481E090E080
:102C30009C8B8B8B3FC06D897E898F89988D20E01E
:102C40003FEF4FE757E40E94190318164CF5698DC2
:102C50007A8D8B8D9C8D20E030E040E251E40E9423
:102C60001F02DC01CB01BC01CD010E944900DC0147
:102C7000CB019C8B8B8B0FC088EC90E09A8B898B5F
:102C800089899A890197F1F79A8B898B8B899C891D
:102C900001979C8B8B8B8B899C89009769F714C05B
:102CA0006D897E898F89988D0E944900DC01CB0156
:102CB0009C8B8B8B8B899C89988B8F878F85988930
:102CC0000197F1F7988B8F8780E062E040E00E94E7
:102CD0008E0680E090E0A0E8BFE38B879C87AD87FD
:102CE000BE876B857C858D859E8520E030E04AEF30
:102CF00054E40E941F02DC01CB018F839887A987CF
:102D0000BA876F81788589859A8520E030E040E830
:102D10005FE30E94790388232CF481E090E09E8396
:102D20008D833FC06F81788589859A8520E03FEF4C
:102D30004FE757E40E94190318164CF56B857C8504
:102D40008D859E8520E030E040E251E40E941F0224
:102D5000DC01CB01BC01CD010E944900DC01CB01AB
:102D60009E838D830FC088EC90E09C838B838B8146
:102D70009C810197F1F79C838B838D819E810197C4
:102D80009E838D838D819E81009769F714C06F812A
:102D9000788589859A850E944900DC01CB019E8354
:102DA0008D838D819E819A83898389819A81019700
:102DB000F1F79A838983CD59DF4F0FB6F894DEBFC0
:102DC0000FBECDBFCF91DF911F910F910895DF937B
:102DD000CF9300D00F92CDB7DEB79B838A83198241
:102DE0000EC08981282F30E08A819B81FC01E20F8F
:102DF000F31F80810E946C1289818F5F8983898192
:102E0000282F30E08A819B81FC01E20FF31F808133
:102E1000882339F70F900F900F90CF91DF9108958D
:102E2000DF93CF9300D000D00F92CDB7DEB78A8367
:102E30006B838A81282F30E03D832C838C819D8198
:102E400081309105C1F02C813D81223031052CF477
:102E50008C819D81009761F019C02C813D812230C9
:102E6000310569F08C819D818330910561F00EC040
:102E70008B8189830BC08B81805C898307C08B81A8
:102E8000805F898303C08B81805B898389818068AF
:102E90000E94F10D0F900F900F900F900F90CF9117
:102EA000DF910895DF93CF9300D000D0CDB7DEB788
:102EB00089836A835C834B8389816A810E941017AE
:102EC0008B819C810E94E7160F900F900F900F90BE
:102ED000CF91DF910895DF93CF93CDB7DEB76B9796
:102EE0000FB6F894DEBF0FBECDBF8B8F8B8D882FB2
:102EF00090E09E012F5F3F4FB9014AE050E00E94F1
:102F0000C31FCE0101960E94E7166B960FB6F89488
:102F1000DEBF0FBECDBFCF91DF910895DF93CF937A
:102F2000CDB7DEB781E00E94F10DCF91DF9108951A
:102F3000DF93CF93CDB7DEB72F970FB6F894DEBFF0
:102F40000FBECDBF0E943F0D8FE091E00E94140A9A
:102F50008EE40E94190B03C08EE40E94190B0E949C
:102F60001E1A8823C9F30E948E1780E690E00E9403
:102F7000E71681E060E00E9410178EE690E00E9464
:102F8000E7160E94AB0B8093250180E090E0AAEF4A
:102F9000B3E48B879C87AD87BE876B857C858D85E9
:102FA0009E8520E030E04AEF54E40E941F02DC01DD
:102FB000CB018F839887A987BA876F8178858985A8
:102FC0009A8520E030E040E85FE30E94790388239F
:102FD0002CF481E090E09E838D833FC06F817885E3
:102FE00089859A8520E03FEF4FE757E40E94190357
:102FF00018164CF56B857C858D859E8520E030E02C
:1030000040E251E40E941F02DC01CB01BC01CD0172
:103010000E944900DC01CB019E838D830FC088ECA8
:1030200090E09C838B838B819C810197F1F79C833B
:103030008B838D819E8101979E838D838D819E815F
:10304000009769F714C06F81788589859A850E94F9
:103050004900DC01CB019E838D838D819E819A8303
:10306000898389819A810197F1F79A838983809175
:1030700025018B3209F077CF8BE20E94190B0E9459
:1030800064180E94300B8F878F85853551F40E941C
:103090008E178EE790E00E94E71680E060E00E94C5
:1030A00010170E94300B8C34E1F70E948E1780E9D4
:1030B00090E00E94E71680E060E00E9410170E94F6
:1030C000300B8434E1F74FCFDF93CF93CDB7DEB72A
:1030D000AC970FB6F894DEBF0FBECDBF82E08BA7D2
:1030E0000E948E1780EA90E00E94E71681E060E07F
:1030F0000E94101796C11CA603C10E94AB0B8093BF
:103100002501809125018A3028F4809125010E94B3
:103110006B1704C0809125010E946C1280E090E042
:10312000A8E4B3E48FA398A7A9A7BAA76FA178A52D
:1031300089A59AA520E030E04AEF54E40E941F02DE
:10314000DC01CB018BA39CA3ADA3BEA36BA17CA18F
:103150008DA19EA120E030E040E85FE30E9479036A
:1031600088232CF481E090E09AA389A33FC06BA14F
:103170007CA18DA19EA120E03FEF4FE757E40E9484
:10318000190318164CF56FA178A589A59AA520E01A
:1031900030E040E251E40E941F02DC01CB01BC019F
:1031A000CD010E944900DC01CB019AA389A30FC085
:1031B00088EC90E098A38F8F8F8D98A10197F1F7FD
:1031C00098A38F8F89A19AA101979AA389A389A116
:1031D0009AA1009769F714C06BA17CA18DA19EA153
:1031E0000E944900DC01CB019AA389A389A19AA17D
:1031F0009E8F8D8F8D8D9E8D0197F1F79E8F8D8F78
:1032000081E06CA50E941017809125010E94190B86
:103210008AE20E946C1280E090E0AAEFB3E4898F0A
:103220009A8FAB8FBC8F698D7A8D8B8D9C8D20E0B2
:1032300030E04AEF54E40E941F02DC01CB018D8B89
:103240009E8BAF8BB88F6D897E898F89988D20E09A
:1032500030E040E85FE30E94790388232CF481E0AA
:1032600090E09C8B8B8B3FC06D897E898F89988D78
:1032700020E03FEF4FE757E40E94190318164CF582
:10328000698D7A8D8B8D9C8D20E030E040E251E499
:103290000E941F02DC01CB01BC01CD010E9449004C
:1032A000DC01CB019C8B8B8B0FC088EC90E09A8B60
:1032B000898B89899A890197F1F79A8B898B8B89F8
:1032C0009C8901979C8B8B8B8B899C89009769F7D4
:1032D00014C06D897E898F89988D0E944900DC0118
:1032E000CB019C8B8B8B8B899C89988B8F878F854F
:1032F00098890197F1F7988B8F878CA58F5F8CA7A2
:103300008CA5853008F4F9CE0E94AB0B8093250183
:1033100080E090E0AAEFB3E48B879C87AD87BE87FF
:103320006B857C858D859E8520E030E04AEF54E4F6
:103330000E941F02DC01CB018F839887A987BA877F
:103340006F81788589859A8520E030E040E85FE3E9
:103350000E94790388232CF481E090E09E838D8382
:103360003FC06F81788589859A8520E03FEF4FE7E0
:1033700057E40E94190318164CF56B857C858D85E2
:103380009E8520E030E040E251E40E941F02DC0113
:10339000CB01BC01CD010E944900DC01CB019E8321
:1033A0008D830FC088EC90E09C838B838B819C8104
:1033B0000197F1F79C838B838D819E8101979E837A
:1033C0008D838D819E81009769F714C06F81788508
:1033D00089859A850E944900DC01CB019E838D83FB
:1033E0008D819E819A83898389819A810197F1F7E2
:1033F0009A838983809125018D3399F40E94300B43
:103400008BA78BA5823021F489E60E94190B09C095
:1034100083E60E94190B0E948E1781EB90E00E94B8
:10342000E7168BA5813009F066CEAC960FB6F894FE
:10343000DEBF0FBECDBFCF91DF9108950F931F93D5
:10344000DF93CF93CDB7DEB7C357D0400FB6F89414
:10345000DEBF0FBECDBFFE01EF58FF4F10820E94AE
:103460008E1780EA90E00E94E71681E060E00E94FB
:103470001017FE01EF58FF4F10829AC10E94AB0B4C
:1034800080932501809125018A3028F480912501BF
:103490000E946B1704C0809125010E946C12FE01EE
:1034A000EF58FF4F8081882F90E020912501FC018B
:1034B000E15EFE4F2083FE01E359FF4F80E090E084
:1034C000A8E4B3E480839183A283B3838E01075978
:1034D0001F4FFE01E359FF4F60817181828193810B
:1034E00020E030E04AEF54E40E941F02DC01CB01EF
:1034F000F80180839183A283B383FE01E759FF4FD4
:10350000608171818281938120E030E040E85FE357
:103510000E947903882344F4FE01E959FF4F81E0BA
:1035200090E09183808364C0FE01E759FF4F608182
:1035300071818281938120E03FEF4FE757E40E9441
:10354000190318160CF043C0FE01E359FF4F6081C8
:1035500071818281938120E030E040E251E40E9459
:103560001F02DC01CB018E0109591F4FBC01CD01A7
:103570000E944900DC01CB01F801918380831FC0C8
:10358000FE01EB59FF4F88EC90E091838083FE01B0
:10359000EB59FF4F808191810197F1F7FE01EB59C3
:1035A000FF4F91838083DE01A959BF4FFE01E95986
:1035B000FF4F80819181019711969C938E93FE011C
:1035C000E959FF4F808191810097D1F627C08E0184
:1035D00009591F4FFE01E759FF4F608171818281B8
:1035E00093810E944900DC01CB01F8019183808323
:1035F000DE01AD59BF4FFE01E959FF4F8081918136
:103600008D939C93FE01ED59FF4F8081918101972D
:10361000F1F7FE01ED59FF4F91838083FE01EF58D2
:10362000FF4F81E060810E941017809125010E9468
:10363000190B8AE20E946C12FE01E15AFF4F80E0F2
:1036400090E0AAEFB3E480839183A283B3838E01D9
:10365000055A1F4FFE01E15AFF4F6081718182813F
:10366000938120E030E04AEF54E40E941F02DC0125
:10367000CB01F80180839183A283B383FE01E55AD5
:10368000FF4F608171818281938120E030E040E8CA
:103690005FE30E947903882344F4FE01E75AFF4F59
:1036A00081E090E09183808364C0FE01E55AFF4F82
:1036B000608171818281938120E03FEF4FE757E481
:1036C0000E94190318160CF043C0FE01E15AFF4F87
:1036D000608171818281938120E030E040E251E499
:1036E0000E941F02DC01CB018E01075A1F4FBC0153
:1036F000CD010E944900DC01CB01F8019183808358
:103700001FC0FE01E95AFF4F88EC90E0918380834F
:10371000FE01E95AFF4F808191810197F1F7FE0187
:10372000E95AFF4F91838083DE01A75ABF4FFE0104
:10373000E75AFF4F80819181019711969C938E9358
:10374000FE01E75AFF4F808191810097D1F627C093
:103750008E01075A1F4FFE01E55AFF4F60817181AC
:10376000828193810E944900DC01CB01F8019183A1
:103770008083DE01AB5ABF4FFE01E75AFF4F8081C5
:1037800091818D939C93FE01EB5AFF4F8081918133
:103790000197F1F7FE01EB5AFF4F91838083DE0121
:1037A000AF58BF4FFE01EF58FF4F80818F5F8C9362
:1037B000FE01EF58FF4F8081853008F45FCE0E94F4
:1037C000AB0B80932501FE01EF5AFF4F80E090E0A4
:1037D000AAEFB3E480839183A283B3838E01035B5A
:1037E0001F4FFE01EF5AFF4F6081718182819381EB
:1037F00020E030E04AEF54E40E941F02DC01CB01DC
:10380000F80180839183A283B383FE01E35BFF4FC2
:10381000608171818281938120E030E040E85FE344
:103820000E947903882344F4FE01E55BFF4F81E0A9
:1038300090E09183808364C0FE01E35BFF4F608171
:1038400071818281938120E03FEF4FE757E40E942E
:10385000190318160CF043C0FE01EF5AFF4F6081A8
:1038600071818281938120E030E040E251E40E9446
:103870001F02DC01CB018E01055B1F4FBC01CD0196
:103880000E944900DC01CB01F801918380831FC0B5
:10389000FE01E75BFF4F88EC90E091838083FE019F
:1038A000E75BFF4F808191810197F1F7FE01E75BB4
:1038B000FF4F91838083DE01A55BBF4FFE01E55B77
:1038C000FF4F80819181019711969C938E93FE0109
:1038D000E55BFF4F808191810097D1F628C08E0172
:1038E000055B1F4FFE01E35BFF4F608171818281A9
:1038F00093810E944900DC01CB01F8019183808310
:10390000DE01A95BBF4FFE01E55BFF4F8081918126
:1039100011969C938E93FE01E95BFF4F808191810C
:103920000197F1F7FE01E95BFF4F9183808380915E
:1039300025018D3309F0BBC20E948E1783E280936C
:10394000240184ED90E00E94E71681E060E00E948F
:10395000101785EE90E00E94E716FE01EF58FF4F2A
:1039600010822EC10E94AB0B80932501809125010E
:103970008A3028F4809125010E946B1704C0809141
:1039800025010E946C12FE01EF58FF4F8081882FA5
:1039900090E020912501FC01E65EFE4F2083FE01B0
:1039A000ED5BFF4F80E090E0A8E4B3E48083918377
:1039B000A283B3838E01015C1F4FFE01ED5BFF4FBD
:1039C000608171818281938120E030E04AEF54E48C
:1039D0000E941F02DC01CB01F80180839183A28346
:1039E000B383FE01FF96608171818281938120E023
:1039F00030E040E85FE30E94790388232CF481E003
:103A000090E09EAF8DAF46C0FE01FF966081718150
:103A10008281938120E03FEF4FE757E40E94190332
:103A2000181664F5FE01ED5BFF4F608171818281A4
:103A3000938120E030E040E251E40E941F02DC016B
:103A4000CB01BC01CD010E944900DC01CB019EAF3E
:103A50008DAF0FC088EC90E09CAF8BAF8BAD9CAD71
:103A60000197F1F79CAF8BAF8DAD9EAD01979EAFE7
:103A70008DAF8DAD9EAD009769F716C0FE01FF9624
:103A800060817181828193810E944900DC01CB01B8
:103A90009EAF8DAF8DAD9EAD9AAF89AF89AD9AAD1A
:103AA0000197F1F79AAF89AFFE01EF58FF4F808180
:103AB000982F955F81E0692F0E9410178091250152
:103AC0000E94190B8AE20E946C1280E090E0AAEF3B
:103AD000B3E48DAB9EABAFABB8AF6DA97EA98FA998
:103AE00098AD20E030E04AEF54E40E941F02DC0170
:103AF000CB0189AB9AABABABBCAB69A97AA98BA95B
:103B00009CA920E030E040E85FE30E94790388232D
:103B10002CF481E090E098AB8FA73FC069A97AA907
:103B20008BA99CA920E03FEF4FE757E40E941903BF
:103B300018164CF56DA97EA98FA998AD20E030E04C
:103B400040E251E40E941F02DC01CB01BC01CD0127
:103B50000E944900DC01CB0198AB8FA70FC088EC15
:103B600090E09EA78DA78DA59EA50197F1F79EA732
:103B70008DA78FA598A9019798AB8FA78FA598A916
:103B8000009769F714C069A97AA98BA99CA90E941A
:103B90004900DC01CB0198AB8FA78FA598A99CA702
:103BA0008BA78BA59CA50197F1F79CA78BA7DE019E
:103BB000AF58BF4FFE01EF58FF4F80818F5F8C934E
:103BC000FE01EF58FF4F8081853008F4CBCE0E9474
:103BD000AB0B8093250180E090E0AAEFB3E48FA3C4
:103BE00098A7A9A7BAA76FA178A589A59AA520E04B
:103BF00030E04AEF54E40E941F02DC01CB018BA3AA
:103C00009CA3ADA3BEA36BA17CA18DA19EA120E02E
:103C100030E040E85FE30E94790388232CF481E0E0
:103C200090E09AA389A33FC06BA17CA18DA19EA126
:103C300020E03FEF4FE757E40E94190318164CF5B8
:103C40006FA178A589A59AA520E030E040E251E473
:103C50000E941F02DC01CB01BC01CD010E94490082
:103C6000DC01CB019AA389A30FC088EC90E098A354
:103C70008F8F8F8D98A10197F1F798A38F8F89A1CE
:103C80009AA101979AA389A389A19AA1009769F79C
:103C900014C06BA17CA18DA19EA10E944900DC01F2
:103CA000CB019AA389A389A19AA19E8F8D8F8D8D17
:103CB0009E8D0197F1F79E8F8D8F0E94300B813082
:103CC00009F079C00E948E1781EF90E00E94E716FC
:103CD00080E090E0A6E9B3E4898F9A8FAB8FBC8F28
:103CE000698D7A8D8B8D9C8D20E030E04AEF54E415
:103CF0000E941F02DC01CB018D8B9E8BAF8BB88F96
:103D00006D897E898F89988D20E030E040E85FE3FF
:103D10000E94790388232CF481E090E09C8B8B8BAC
:103D20003FC06D897E898F89988D20E03FEF4FE7F6
:103D300057E40E94190318164CF5698D7A8D8B8D06
:103D40009C8D20E030E040E251E40E941F02DC0143
:103D5000CB01BC01CD010E944900DC01CB019C8B51
:103D60008B8B0FC088EC90E09A8B898B89899A891C
:103D70000197F1F79A8B898B8B899C8901979C8B92
:103D80008B8B8B899C89009769F791C06D897E899F
:103D90008F89988D0E944900DC01CB019C8B8B8B15
:103DA0008B899C89988B8F878F8598890197F1F7EC
:103DB000988B8F877CC00E948E178AEF90E00E94BC
:103DC000E71680E090E0A6E9B3E48B879C87AD8797
:103DD000BE876B857C858D859E8520E030E04AEF2F
:103DE00054E40E941F02DC01CB018F839887A987CE
:103DF000BA876F81788589859A8520E030E040E830
:103E00005FE30E94790388232CF481E090E09E8395
:103E10008D833FC06F81788589859A8520E03FEF4B
:103E20004FE757E40E94190318164CF56B857C8503
:103E30008D859E8520E030E040E251E40E941F0223
:103E4000DC01CB01BC01CD010E944900DC01CB01AA
:103E50009E838D830FC088EC90E09C838B838B8145
:103E60009C810197F1F79C838B838D819E810197C3
:103E70009E838D838D819E81009769F714C06F8129
:103E8000788589859A850E944900DC01CB019E8353
:103E90008D838D819E819A83898389819A810197FF
:103EA000F1F79A838983E4961FAEE49704C0F1E0AA
:103EB000E496FFAFE497E4968FADE497CD58DF4FDB
:103EC0000FB6F894DEBF0FBECDBFCF91DF911F912B
:103ED0000F910895A1E21A2EAA1BBB1BFD010DC074
:103EE000AA1FBB1FEE1FFF1FA217B307E407F507AA
:103EF00020F0A21BB30BE40BF50B661F771F881F86
:103F0000991F1A9469F760957095809590959B011B
:103F1000AC01BD01CF0108952F923F924F925F9265
:103F20006F927F928F929F92AF92BF92CF92DF92C9
:103F3000EF92FF920F931F93CF93DF93CDB7DEB72E
:103F4000CA1BDB0B0FB6F894DEBF0FBECDBF0994C2
:103F50002A88398848885F846E847D848C849B8419
:103F6000AA84B984C884DF80EE80FD800C811B8127
:103F7000AA81B981CE0FD11D0FB6F894DEBF0FBE56
:103F8000CDBFED010895FB019F01423074F0453231
:103F900064F4642F77270E94E91F805D8A330CF058
:103FA000895D8193CB010097A1F71082C9010C9420
:103FB000D91FDC01FC01672F71917723E1F732975C
:103FC00004C07C916D9370836291AE17BF07C8F3F4
:103FD0000895AA1BBB1B51E107C0AA1FBB1FA61750
:103FE000B70710F0A61BB70B881F991F5A95A9F7A2
:0E3FF00080959095BC01CD010895F894FFCF07
:103FFE002B203A204F70656E20446F6F72002D207B
:10400E003A204368616E6765205061737300446F98
:10401E006F7220697320556E6C6F636B696E6700EB
:10402E00446F6F72206973204C6F636B696E67000B
:10403E00706C7A20656E74657220706173733A20AD
:10404E0000594F55204C4F4747454420494E204379
:10405E004F52524543542050415353574F524420D0
:10406E0021212100706C7A2072652D656E74657247
:10407E00207468650073616D6520706173733A20FA
:10408E0000436F727265637421004E6F74204D6130
:10409E00746368696E670000000000000000000392
:0640AE0000008025000067
:00000001FF
